{
  "fileName": "GiveAway.sol",
  "contractName": "GiveAway",
  "source": "// contracts/GiveAway.sol\n// SPDX-License-Identifier: Apache-2.0\npragma solidity >=0.6.0 <0.8.0;\n\n\ncontract GiveAway{\n\n  string public _name;\n  uint256 public _participants;\n\n  constructor(string memory name, uint256 participants) payable{\n    _participants = participants;\n    _name = name;\n  }\n\n\n}\n",
  "sourcePath": "contracts/GiveAway.sol",
  "abi": [
    {
      "inputs": [
        {
          "internalType": "string",
          "name": "name",
          "type": "string"
        },
        {
          "internalType": "uint256",
          "name": "participants",
          "type": "uint256"
        }
      ],
      "stateMutability": "payable",
      "type": "constructor"
    },
    {
      "inputs": [],
      "name": "_name",
      "outputs": [
        {
          "internalType": "string",
          "name": "",
          "type": "string"
        }
      ],
      "stateMutability": "view",
      "type": "function"
    },
    {
      "inputs": [],
      "name": "_participants",
      "outputs": [
        {
          "internalType": "uint256",
          "name": "",
          "type": "uint256"
        }
      ],
      "stateMutability": "view",
      "type": "function"
    }
  ],
  "bytecode": "0x60806040526040516103833803806103838339818101604052604081101561002657600080fd5b810190808051604051939291908464010000000082111561004657600080fd5b8382019150602082018581111561005c57600080fd5b825186600182028301116401000000008211171561007957600080fd5b8083526020830192505050908051906020019080838360005b838110156100ad578082015181840152602081019050610092565b50505050905090810190601f1680156100da5780820380516001836020036101000a031916815260200191505b506040526020018051906020019092919050505080600181905550816000908051906020019061010b929190610113565b5050506101be565b828054600181600116156101000203166002900490600052602060002090601f0160209004810192826101495760008555610190565b82601f1061016257805160ff1916838001178555610190565b82800160010185558215610190579182015b8281111561018f578251825591602001919060010190610174565b5b50905061019d91906101a1565b5090565b5b808211156101ba5760008160009055506001016101a2565b5090565b6101b6806101cd6000396000f3fe608060405234801561001057600080fd5b50600436106100365760003560e01c8063c9a1497a1461003b578063d28d885214610059575b600080fd5b6100436100dc565b6040518082815260200191505060405180910390f35b6100616100e2565b6040518080602001828103825283818151815260200191508051906020019080838360005b838110156100a1578082015181840152602081019050610086565b50505050905090810190601f1680156100ce5780820380516001836020036101000a031916815260200191505b509250505060405180910390f35b60015481565b60008054600181600116156101000203166002900480601f0160208091040260200160405190810160405280929190818152602001828054600181600116156101000203166002900480156101785780601f1061014d57610100808354040283529160200191610178565b820191906000526020600020905b81548152906001019060200180831161015b57829003601f168201915b50505050508156fea26469706673582212202f4e9cd85a121fc2a83356084790f8b8a38322a343821e87c4e2b4db71cb031364736f6c63430007050033",
  "compiler": {
    "name": "solc",
    "version": "0.7.5+commit.eb77ed08.Emscripten.clang",
    "optimizer": {
      "enabled": false,
      "runs": 200
    },
    "evmVersion": "petersburg"
  }
}