{
  "fileName": "GiveAway.sol",
  "contractName": "GiveAway",
  "source": "// contracts/GiveAway.sol\n// SPDX-License-Identifier: Apache-2.0\npragma solidity >=0.6.0 <0.8.0;\n\nimport \"@openzeppelin/contracts/access/Ownable.sol\";\nimport \"@openzeppelin/contracts/utils/Pausable.sol\";\n\ncontract GiveAway is Ownable, Pausable{\n\n  uint public constant RETWEET_INDEX = 0;\n\n  uint public constant LIKE_INDEX = 1;\n\n  struct Rules {\n      uint256 scoreRetweet;\n      uint256 scoreLike;\n  }\n\n  struct Participant {\n      bytes id;\n      uint[] status;\n  }\n\n  string public _name;\n  uint256 public _maxParticipants;\n  Rules public _rules;\n\n\n  address [] _listParticipants;\n  mapping(address => Participant) public _participants;\n  string public _tweetLink;\n\n  modifier onlyRegisteredUser()\n    {\n        require(keccak256(_participants[msg.sender].id) != keccak256(bytes(\"\")), \"You need to validate your participation\");\n        _;\n    }\n\n  constructor (string memory name, string memory tweetLink, uint256 maxParticipants, uint256 scoreRetweet, uint256 scoreLike) public payable {\n    require(msg.value>0);\n    _maxParticipants = maxParticipants;\n    _name = name;\n    _rules = Rules(scoreRetweet, scoreLike);\n    _tweetLink = tweetLink;\n  }\n\n  function participate(string memory id) public payable{\n      require(_listParticipants.length < _maxParticipants, \"The maximum number of participants is reached\");\n      require(keccak256(_participants[msg.sender].id) == keccak256(bytes(\"\")), \"You have already validated your participation\");\n      _listParticipants.push(msg.sender);\n      _participants[msg.sender].id = bytes(id) ;\n  }\n\n  function retweet() public payable onlyRegisteredUser{\n      require(_participants[msg.sender].status[RETWEET_INDEX] == 0, \"You can only retweet once\");\n      _participants[msg.sender].status[RETWEET_INDEX] = 1;\n  }\n\n  function like() public payable onlyRegisteredUser {\n      require(_participants[msg.sender].status[LIKE_INDEX] == 0, \"You can only like once\");\n      _participants[msg.sender].status[LIKE_INDEX] = 1;\n\n  }\n\n  function getMyScore() public view returns (uint256) {\n      return getScore(msg.sender);\n  }\n\n  function getScore(address participant) public view returns (uint256) {\n    return _participants[participant].status[RETWEET_INDEX] * _rules.scoreRetweet\n            + _participants[participant].status[LIKE_INDEX] * _rules.scoreLike;\n\n  }\n\n  function isUserParticipating(address participant) public view returns (bool){\n      return keccak256(_participants[participant].id) != keccak256(bytes(\"\"));\n  }\n\n  function amIParticipating() public view returns (bool){\n      return isUserParticipating(msg.sender);\n  }\n\n  function close() public payable onlyRegisteredUser{\n    _pause();\n  }\n\n  function numberOfParticipants() public view returns (uint256){\n     return _listParticipants.length;\n  }\n\n}\n",
  "sourcePath": "contracts/GiveAway.sol",
  "abi": [
    {
      "inputs": [
        {
          "internalType": "string",
          "name": "name",
          "type": "string"
        },
        {
          "internalType": "string",
          "name": "tweetLink",
          "type": "string"
        },
        {
          "internalType": "uint256",
          "name": "maxParticipants",
          "type": "uint256"
        },
        {
          "internalType": "uint256",
          "name": "scoreRetweet",
          "type": "uint256"
        },
        {
          "internalType": "uint256",
          "name": "scoreLike",
          "type": "uint256"
        }
      ],
      "stateMutability": "payable",
      "type": "constructor"
    },
    {
      "anonymous": false,
      "inputs": [
        {
          "indexed": true,
          "internalType": "address",
          "name": "previousOwner",
          "type": "address"
        },
        {
          "indexed": true,
          "internalType": "address",
          "name": "newOwner",
          "type": "address"
        }
      ],
      "name": "OwnershipTransferred",
      "type": "event"
    },
    {
      "anonymous": false,
      "inputs": [
        {
          "indexed": false,
          "internalType": "address",
          "name": "account",
          "type": "address"
        }
      ],
      "name": "Paused",
      "type": "event"
    },
    {
      "anonymous": false,
      "inputs": [
        {
          "indexed": false,
          "internalType": "address",
          "name": "account",
          "type": "address"
        }
      ],
      "name": "Unpaused",
      "type": "event"
    },
    {
      "inputs": [],
      "name": "LIKE_INDEX",
      "outputs": [
        {
          "internalType": "uint256",
          "name": "",
          "type": "uint256"
        }
      ],
      "stateMutability": "view",
      "type": "function"
    },
    {
      "inputs": [],
      "name": "RETWEET_INDEX",
      "outputs": [
        {
          "internalType": "uint256",
          "name": "",
          "type": "uint256"
        }
      ],
      "stateMutability": "view",
      "type": "function"
    },
    {
      "inputs": [],
      "name": "_maxParticipants",
      "outputs": [
        {
          "internalType": "uint256",
          "name": "",
          "type": "uint256"
        }
      ],
      "stateMutability": "view",
      "type": "function"
    },
    {
      "inputs": [],
      "name": "_name",
      "outputs": [
        {
          "internalType": "string",
          "name": "",
          "type": "string"
        }
      ],
      "stateMutability": "view",
      "type": "function"
    },
    {
      "inputs": [
        {
          "internalType": "address",
          "name": "",
          "type": "address"
        }
      ],
      "name": "_participants",
      "outputs": [
        {
          "internalType": "bytes",
          "name": "id",
          "type": "bytes"
        }
      ],
      "stateMutability": "view",
      "type": "function"
    },
    {
      "inputs": [],
      "name": "_rules",
      "outputs": [
        {
          "internalType": "uint256",
          "name": "scoreRetweet",
          "type": "uint256"
        },
        {
          "internalType": "uint256",
          "name": "scoreLike",
          "type": "uint256"
        }
      ],
      "stateMutability": "view",
      "type": "function"
    },
    {
      "inputs": [],
      "name": "_tweetLink",
      "outputs": [
        {
          "internalType": "string",
          "name": "",
          "type": "string"
        }
      ],
      "stateMutability": "view",
      "type": "function"
    },
    {
      "inputs": [],
      "name": "amIParticipating",
      "outputs": [
        {
          "internalType": "bool",
          "name": "",
          "type": "bool"
        }
      ],
      "stateMutability": "view",
      "type": "function"
    },
    {
      "inputs": [],
      "name": "close",
      "outputs": [],
      "stateMutability": "payable",
      "type": "function"
    },
    {
      "inputs": [],
      "name": "getMyScore",
      "outputs": [
        {
          "internalType": "uint256",
          "name": "",
          "type": "uint256"
        }
      ],
      "stateMutability": "view",
      "type": "function"
    },
    {
      "inputs": [
        {
          "internalType": "address",
          "name": "participant",
          "type": "address"
        }
      ],
      "name": "getScore",
      "outputs": [
        {
          "internalType": "uint256",
          "name": "",
          "type": "uint256"
        }
      ],
      "stateMutability": "view",
      "type": "function"
    },
    {
      "inputs": [
        {
          "internalType": "address",
          "name": "participant",
          "type": "address"
        }
      ],
      "name": "isUserParticipating",
      "outputs": [
        {
          "internalType": "bool",
          "name": "",
          "type": "bool"
        }
      ],
      "stateMutability": "view",
      "type": "function"
    },
    {
      "inputs": [],
      "name": "like",
      "outputs": [],
      "stateMutability": "payable",
      "type": "function"
    },
    {
      "inputs": [],
      "name": "numberOfParticipants",
      "outputs": [
        {
          "internalType": "uint256",
          "name": "",
          "type": "uint256"
        }
      ],
      "stateMutability": "view",
      "type": "function"
    },
    {
      "inputs": [],
      "name": "owner",
      "outputs": [
        {
          "internalType": "address",
          "name": "",
          "type": "address"
        }
      ],
      "stateMutability": "view",
      "type": "function"
    },
    {
      "inputs": [
        {
          "internalType": "string",
          "name": "id",
          "type": "string"
        }
      ],
      "name": "participate",
      "outputs": [],
      "stateMutability": "payable",
      "type": "function"
    },
    {
      "inputs": [],
      "name": "paused",
      "outputs": [
        {
          "internalType": "bool",
          "name": "",
          "type": "bool"
        }
      ],
      "stateMutability": "view",
      "type": "function"
    },
    {
      "inputs": [],
      "name": "renounceOwnership",
      "outputs": [],
      "stateMutability": "nonpayable",
      "type": "function"
    },
    {
      "inputs": [],
      "name": "retweet",
      "outputs": [],
      "stateMutability": "payable",
      "type": "function"
    },
    {
      "inputs": [
        {
          "internalType": "address",
          "name": "newOwner",
          "type": "address"
        }
      ],
      "name": "transferOwnership",
      "outputs": [],
      "stateMutability": "nonpayable",
      "type": "function"
    }
  ],
  "bytecode": "0x608060405260405162001cd438038062001cd4833981810160405260a08110156200002957600080fd5b81019080805160405193929190846401000000008211156200004a57600080fd5b838201915060208201858111156200006157600080fd5b82518660018202830111640100000000821117156200007f57600080fd5b8083526020830192505050908051906020019080838360005b83811015620000b557808201518184015260208101905062000098565b50505050905090810190601f168015620000e35780820380516001836020036101000a031916815260200191505b50604052602001805160405193929190846401000000008211156200010757600080fd5b838201915060208201858111156200011e57600080fd5b82518660018202830111640100000000821117156200013c57600080fd5b8083526020830192505050908051906020019080838360005b838110156200017257808201518184015260208101905062000155565b50505050905090810190601f168015620001a05780820380516001836020036101000a031916815260200191505b506040526020018051906020019092919080519060200190929190805190602001909291905050506000620001da6200031260201b60201c565b9050806000806101000a81548173ffffffffffffffffffffffffffffffffffffffff021916908373ffffffffffffffffffffffffffffffffffffffff1602179055508073ffffffffffffffffffffffffffffffffffffffff16600073ffffffffffffffffffffffffffffffffffffffff167f8be0079c531659141344cd1fd0a4f28419497f9722a3daafe3b4186f6b6457e060405160405180910390a35060008060146101000a81548160ff02191690831515021790555060003411620002a057600080fd5b826002819055508460019080519060200190620002bf9291906200031a565b50604051806040016040528083815260200182815250600360008201518160000155602082015181600101559050508360079080519060200190620003069291906200031a565b505050505050620003c9565b600033905090565b828054600181600116156101000203166002900490600052602060002090601f016020900481019282601f106200035d57805160ff19168380011785556200038e565b828001600101855582156200038e579182015b828111156200038d57825182559160200191906001019062000370565b5b5090506200039d9190620003a1565b5090565b620003c691905b80821115620003c2576000816000905550600101620003a8565b5090565b90565b6118fb80620003d96000396000f3fe60806040526004361061011f5760003560e01c80639f89e755116100a0578063d5fedc5011610064578063d5fedc5014610559578063f1599f2c14610623578063f2fde38b1461064e578063f578ebaa1461069f578063f60e49b5146106a95761011f565b80639f89e75514610400578063a523b88a1461042f578063b5e9757c14610439578063d28d885214610464578063d47875d0146104f45761011f565b8063715018a6116100e7578063715018a6146102ac5780637417040e146102c35780637c1f9dc5146102ee5780638a258aa81461037e5780638da5cb5b146103a95761011f565b80631d27769f1461012457806327b9d6f7146101df57806327c87c331461024857806343d726d6146102735780635c975abb1461027d575b600080fd5b6101dd6004803603602081101561013a57600080fd5b810190808035906020019064010000000081111561015757600080fd5b82018360208201111561016957600080fd5b8035906020019184600183028401116401000000008311171561018b57600080fd5b91908080601f016020809104026020016040519081016040528093929190818152602001838380828437600081840152601f19601f8201169050808301925050505050505091929192905050506106db565b005b3480156101eb57600080fd5b5061022e6004803603602081101561020257600080fd5b81019080803573ffffffffffffffffffffffffffffffffffffffff16906020019092919050505061090e565b604051808215151515815260200191505060405180910390f35b34801561025457600080fd5b5061025d6109da565b6040518082815260200191505060405180910390f35b61027b6109df565b005b34801561028957600080fd5b50610292610b01565b604051808215151515815260200191505060405180910390f35b3480156102b857600080fd5b506102c1610b17565b005b3480156102cf57600080fd5b506102d8610c9f565b6040518082815260200191505060405180910390f35b3480156102fa57600080fd5b50610303610cac565b6040518080602001828103825283818151815260200191508051906020019080838360005b83811015610343578082015181840152602081019050610328565b50505050905090810190601f1680156103705780820380516001836020036101000a031916815260200191505b509250505060405180910390f35b34801561038a57600080fd5b50610393610d4a565b6040518082815260200191505060405180910390f35b3480156103b557600080fd5b506103be610d4f565b604051808273ffffffffffffffffffffffffffffffffffffffff1673ffffffffffffffffffffffffffffffffffffffff16815260200191505060405180910390f35b34801561040c57600080fd5b50610415610d78565b604051808215151515815260200191505060405180910390f35b610437610d88565b005b34801561044557600080fd5b5061044e610fce565b6040518082815260200191505060405180910390f35b34801561047057600080fd5b50610479610fd4565b6040518080602001828103825283818151815260200191508051906020019080838360005b838110156104b957808201518184015260208101905061049e565b50505050905090810190601f1680156104e65780820380516001836020036101000a031916815260200191505b509250505060405180910390f35b34801561050057600080fd5b506105436004803603602081101561051757600080fd5b81019080803573ffffffffffffffffffffffffffffffffffffffff169060200190929190505050611072565b6040518082815260200191505060405180910390f35b34801561056557600080fd5b506105a86004803603602081101561057c57600080fd5b81019080803573ffffffffffffffffffffffffffffffffffffffff16906020019092919050505061113c565b6040518080602001828103825283818151815260200191508051906020019080838360005b838110156105e85780820151818401526020810190506105cd565b50505050905090810190601f1680156106155780820380516001836020036101000a031916815260200191505b509250505060405180910390f35b34801561062f57600080fd5b506106386111f2565b6040518082815260200191505060405180910390f35b34801561065a57600080fd5b5061069d6004803603602081101561067157600080fd5b81019080803573ffffffffffffffffffffffffffffffffffffffff169060200190929190505050611202565b005b6106a761140f565b005b3480156106b557600080fd5b506106be611655565b604051808381526020018281526020019250505060405180910390f35b6002546005805490501061073a576040517f08c379a000000000000000000000000000000000000000000000000000000000815260040180806020018281038252602d815260200180611899602d913960400191505060405180910390fd5b6040518060200160405280600081525080519060200120600660003373ffffffffffffffffffffffffffffffffffffffff1673ffffffffffffffffffffffffffffffffffffffff16815260200190815260200160002060000160405180828054600181600116156101000203166002900480156107ee5780601f106107cc5761010080835404028352918201916107ee565b820191906000526020600020905b8154815290600101906020018083116107da575b5050915050604051809103902014610851576040517f08c379a000000000000000000000000000000000000000000000000000000000815260040180806020018281038252602d81526020018061181f602d913960400191505060405180910390fd5b6005339080600181540180825580915050600190039060005260206000200160009091909190916101000a81548173ffffffffffffffffffffffffffffffffffffffff021916908373ffffffffffffffffffffffffffffffffffffffff16021790555080600660003373ffffffffffffffffffffffffffffffffffffffff1673ffffffffffffffffffffffffffffffffffffffff168152602001908152602001600020600001908051906020019061090a929190611779565b5050565b60006040518060200160405280600081525080519060200120600660008473ffffffffffffffffffffffffffffffffffffffff1673ffffffffffffffffffffffffffffffffffffffff16815260200190815260200160002060000160405180828054600181600116156101000203166002900480156109c45780601f106109a25761010080835404028352918201916109c4565b820191906000526020600020905b8154815290600101906020018083116109b0575b5050915050604051809103902014159050919050565b600181565b6040518060200160405280600081525080519060200120600660003373ffffffffffffffffffffffffffffffffffffffff1673ffffffffffffffffffffffffffffffffffffffff1681526020019081526020016000206000016040518082805460018160011615610100020316600290048015610a935780601f10610a71576101008083540402835291820191610a93565b820191906000526020600020905b815481529060010190602001808311610a7f575b505091505060405180910390201415610af7576040517f08c379a00000000000000000000000000000000000000000000000000000000081526004018080602001828103825260278152602001806118726027913960400191505060405180910390fd5b610aff611667565b565b60008060149054906101000a900460ff16905090565b610b1f611771565b73ffffffffffffffffffffffffffffffffffffffff166000809054906101000a900473ffffffffffffffffffffffffffffffffffffffff1673ffffffffffffffffffffffffffffffffffffffff1614610be0576040517f08c379a00000000000000000000000000000000000000000000000000000000081526004018080602001828103825260208152602001807f4f776e61626c653a2063616c6c6572206973206e6f7420746865206f776e657281525060200191505060405180910390fd5b600073ffffffffffffffffffffffffffffffffffffffff166000809054906101000a900473ffffffffffffffffffffffffffffffffffffffff1673ffffffffffffffffffffffffffffffffffffffff167f8be0079c531659141344cd1fd0a4f28419497f9722a3daafe3b4186f6b6457e060405160405180910390a360008060006101000a81548173ffffffffffffffffffffffffffffffffffffffff021916908373ffffffffffffffffffffffffffffffffffffffff160217905550565b6000600580549050905090565b60078054600181600116156101000203166002900480601f016020809104026020016040519081016040528092919081815260200182805460018160011615610100020316600290048015610d425780601f10610d1757610100808354040283529160200191610d42565b820191906000526020600020905b815481529060010190602001808311610d2557829003601f168201915b505050505081565b600081565b60008060009054906101000a900473ffffffffffffffffffffffffffffffffffffffff16905090565b6000610d833361090e565b905090565b6040518060200160405280600081525080519060200120600660003373ffffffffffffffffffffffffffffffffffffffff1673ffffffffffffffffffffffffffffffffffffffff1681526020019081526020016000206000016040518082805460018160011615610100020316600290048015610e3c5780601f10610e1a576101008083540402835291820191610e3c565b820191906000526020600020905b815481529060010190602001808311610e28575b505091505060405180910390201415610ea0576040517f08c379a00000000000000000000000000000000000000000000000000000000081526004018080602001828103825260278152602001806118726027913960400191505060405180910390fd5b6000600660003373ffffffffffffffffffffffffffffffffffffffff1673ffffffffffffffffffffffffffffffffffffffff168152602001908152602001600020600101600181548110610ef057fe5b906000526020600020015414610f6e576040517f08c379a00000000000000000000000000000000000000000000000000000000081526004018080602001828103825260168152602001807f596f752063616e206f6e6c79206c696b65206f6e63650000000000000000000081525060200191505060405180910390fd5b6001600660003373ffffffffffffffffffffffffffffffffffffffff1673ffffffffffffffffffffffffffffffffffffffff168152602001908152602001600020600101600181548110610fbe57fe5b9060005260206000200181905550565b60025481565b60018054600181600116156101000203166002900480601f01602080910402602001604051908101604052809291908181526020018280546001816001161561010002031660029004801561106a5780601f1061103f5761010080835404028352916020019161106a565b820191906000526020600020905b81548152906001019060200180831161104d57829003601f168201915b505050505081565b6000600360010154600660008473ffffffffffffffffffffffffffffffffffffffff1673ffffffffffffffffffffffffffffffffffffffff1681526020019081526020016000206001016001815481106110c857fe5b906000526020600020015402600360000154600660008573ffffffffffffffffffffffffffffffffffffffff1673ffffffffffffffffffffffffffffffffffffffff16815260200190815260200160002060010160008154811061112857fe5b906000526020600020015402019050919050565b6006602052806000526040600020600091509050806000018054600181600116156101000203166002900480601f0160208091040260200160405190810160405280929190818152602001828054600181600116156101000203166002900480156111e85780601f106111bd576101008083540402835291602001916111e8565b820191906000526020600020905b8154815290600101906020018083116111cb57829003601f168201915b5050505050905081565b60006111fd33611072565b905090565b61120a611771565b73ffffffffffffffffffffffffffffffffffffffff166000809054906101000a900473ffffffffffffffffffffffffffffffffffffffff1673ffffffffffffffffffffffffffffffffffffffff16146112cb576040517f08c379a00000000000000000000000000000000000000000000000000000000081526004018080602001828103825260208152602001807f4f776e61626c653a2063616c6c6572206973206e6f7420746865206f776e657281525060200191505060405180910390fd5b600073ffffffffffffffffffffffffffffffffffffffff168173ffffffffffffffffffffffffffffffffffffffff161415611351576040517f08c379a000000000000000000000000000000000000000000000000000000000815260040180806020018281038252602681526020018061184c6026913960400191505060405180910390fd5b8073ffffffffffffffffffffffffffffffffffffffff166000809054906101000a900473ffffffffffffffffffffffffffffffffffffffff1673ffffffffffffffffffffffffffffffffffffffff167f8be0079c531659141344cd1fd0a4f28419497f9722a3daafe3b4186f6b6457e060405160405180910390a3806000806101000a81548173ffffffffffffffffffffffffffffffffffffffff021916908373ffffffffffffffffffffffffffffffffffffffff16021790555050565b6040518060200160405280600081525080519060200120600660003373ffffffffffffffffffffffffffffffffffffffff1673ffffffffffffffffffffffffffffffffffffffff16815260200190815260200160002060000160405180828054600181600116156101000203166002900480156114c35780601f106114a15761010080835404028352918201916114c3565b820191906000526020600020905b8154815290600101906020018083116114af575b505091505060405180910390201415611527576040517f08c379a00000000000000000000000000000000000000000000000000000000081526004018080602001828103825260278152602001806118726027913960400191505060405180910390fd5b6000600660003373ffffffffffffffffffffffffffffffffffffffff1673ffffffffffffffffffffffffffffffffffffffff16815260200190815260200160002060010160008154811061157757fe5b9060005260206000200154146115f5576040517f08c379a00000000000000000000000000000000000000000000000000000000081526004018080602001828103825260198152602001807f596f752063616e206f6e6c792072657477656574206f6e63650000000000000081525060200191505060405180910390fd5b6001600660003373ffffffffffffffffffffffffffffffffffffffff1673ffffffffffffffffffffffffffffffffffffffff16815260200190815260200160002060010160008154811061164557fe5b9060005260206000200181905550565b60038060000154908060010154905082565b600060149054906101000a900460ff16156116ea576040517f08c379a00000000000000000000000000000000000000000000000000000000081526004018080602001828103825260108152602001807f5061757361626c653a207061757365640000000000000000000000000000000081525060200191505060405180910390fd5b6001600060146101000a81548160ff0219169083151502179055507f62e78cea01bee320cd4e420270b5ea74000d11b0c9f74754ebdbfc544b05a25861172e611771565b604051808273ffffffffffffffffffffffffffffffffffffffff1673ffffffffffffffffffffffffffffffffffffffff16815260200191505060405180910390a1565b600033905090565b828054600181600116156101000203166002900490600052602060002090601f016020900481019282601f106117ba57805160ff19168380011785556117e8565b828001600101855582156117e8579182015b828111156117e75782518255916020019190600101906117cc565b5b5090506117f591906117f9565b5090565b61181b91905b808211156118175760008160009055506001016117ff565b5090565b9056fe596f75206861766520616c72656164792076616c69646174656420796f75722070617274696369706174696f6e4f776e61626c653a206e6577206f776e657220697320746865207a65726f2061646472657373596f75206e65656420746f2076616c696461746520796f75722070617274696369706174696f6e546865206d6178696d756d206e756d626572206f66207061727469636970616e74732069732072656163686564a26469706673582212205da9a373c32f0f671532f6ec1d0c4b8f2112478cbd1aaf5946d443642a69a25164736f6c63430006050033",
  "compiler": {
    "name": "solc",
    "version": "0.6.5+commit.f956cc89.Emscripten.clang",
    "optimizer": {
      "enabled": false,
      "runs": 200
    },
    "evmVersion": "petersburg"
  }
}