{
  "fileName": "GiveAway.sol",
  "contractName": "GiveAway",
  "source": "// contracts/GiveAway.sol\n// SPDX-License-Identifier: Apache-2.0\npragma solidity >=0.6.0 <0.8.0;\n\nimport \"@openzeppelin/contracts/access/Ownable.sol\";\nimport \"@openzeppelin/contracts/utils/Pausable.sol\";\n\ncontract GiveAway is Ownable, Pausable{\n\n  uint public constant RETWEET_INDEX = 0;\n\n  uint public constant LIKE_INDEX = 1;\n\n  struct Rules {\n      uint256 scoreRetweet;\n      uint256 scoreLike;\n  }\n\n  struct Participant {\n      bytes id;\n      uint[] status;\n  }\n\n  string public _name;\n  uint256 public _maxParticipants;\n  Rules public _rules;\n\n\n  address [] _listParticipants;\n  mapping(address => Participant) public _participants;\n\n  modifier onlyRegisteredUser()\n    {\n        require(keccak256(_participants[msg.sender].id) != keccak256(bytes(\"\")), \"You need to validate your participation\");\n        _;\n    }\n\n  constructor (string memory name, uint256 maxParticipants, uint256 scoreRetweet, uint256 scoreLike) public payable {\n    require(msg.value>0);\n    _maxParticipants = maxParticipants;\n    _name = name;\n    _rules = Rules(scoreRetweet, scoreLike);\n  }\n\n  function participate(string memory id) public payable{\n      require(_listParticipants.length < _maxParticipants, \"The maximum number of participants is reached\");\n      require(keccak256(_participants[msg.sender].id) == keccak256(bytes(\"\")), \"You have already validated your participation\");\n      _listParticipants.push(msg.sender);\n      _participants[msg.sender].id = bytes(id) ;\n  }\n\n  function retweet() public payable onlyRegisteredUser{\n      require(_participants[msg.sender].status[RETWEET_INDEX] == 0, \"You can only retweet once\");\n      _participants[msg.sender].status[RETWEET_INDEX] = 1;\n  }\n\n  function like() public payable onlyRegisteredUser {\n      require(_participants[msg.sender].status[LIKE_INDEX] == 0, \"You can only like once\");\n      _participants[msg.sender].status[LIKE_INDEX] = 1;\n\n  }\n\n  function getMyScore() public view returns (uint256) {\n      return getScore(msg.sender);\n  }\n\n  function getScore(address participant) public view returns (uint256) {\n    return _participants[participant].status[RETWEET_INDEX] * _rules.scoreRetweet\n            + _participants[participant].status[LIKE_INDEX] * _rules.scoreLike;\n\n  }\n\n  function isUserParticipating(address participant) public view returns (bool){\n      return keccak256(_participants[participant].id) != keccak256(bytes(\"\"));\n  }\n\n  function amIParticipating() public view returns (bool){\n      return isUserParticipating(msg.sender);\n  }\n\n    function close() public payable onlyRegisteredUser{\n    _pause();\n  }\n\n\n}\n",
  "sourcePath": "contracts/GiveAway.sol",
  "abi": [
    {
      "inputs": [
        {
          "internalType": "string",
          "name": "name",
          "type": "string"
        },
        {
          "internalType": "uint256",
          "name": "maxParticipants",
          "type": "uint256"
        },
        {
          "internalType": "uint256",
          "name": "scoreRetweet",
          "type": "uint256"
        },
        {
          "internalType": "uint256",
          "name": "scoreLike",
          "type": "uint256"
        }
      ],
      "stateMutability": "payable",
      "type": "constructor"
    },
    {
      "anonymous": false,
      "inputs": [
        {
          "indexed": true,
          "internalType": "address",
          "name": "previousOwner",
          "type": "address"
        },
        {
          "indexed": true,
          "internalType": "address",
          "name": "newOwner",
          "type": "address"
        }
      ],
      "name": "OwnershipTransferred",
      "type": "event"
    },
    {
      "anonymous": false,
      "inputs": [
        {
          "indexed": false,
          "internalType": "address",
          "name": "account",
          "type": "address"
        }
      ],
      "name": "Paused",
      "type": "event"
    },
    {
      "anonymous": false,
      "inputs": [
        {
          "indexed": false,
          "internalType": "address",
          "name": "account",
          "type": "address"
        }
      ],
      "name": "Unpaused",
      "type": "event"
    },
    {
      "inputs": [],
      "name": "LIKE_INDEX",
      "outputs": [
        {
          "internalType": "uint256",
          "name": "",
          "type": "uint256"
        }
      ],
      "stateMutability": "view",
      "type": "function"
    },
    {
      "inputs": [],
      "name": "RETWEET_INDEX",
      "outputs": [
        {
          "internalType": "uint256",
          "name": "",
          "type": "uint256"
        }
      ],
      "stateMutability": "view",
      "type": "function"
    },
    {
      "inputs": [],
      "name": "_maxParticipants",
      "outputs": [
        {
          "internalType": "uint256",
          "name": "",
          "type": "uint256"
        }
      ],
      "stateMutability": "view",
      "type": "function"
    },
    {
      "inputs": [],
      "name": "_name",
      "outputs": [
        {
          "internalType": "string",
          "name": "",
          "type": "string"
        }
      ],
      "stateMutability": "view",
      "type": "function"
    },
    {
      "inputs": [
        {
          "internalType": "address",
          "name": "",
          "type": "address"
        }
      ],
      "name": "_participants",
      "outputs": [
        {
          "internalType": "bytes",
          "name": "id",
          "type": "bytes"
        }
      ],
      "stateMutability": "view",
      "type": "function"
    },
    {
      "inputs": [],
      "name": "_rules",
      "outputs": [
        {
          "internalType": "uint256",
          "name": "scoreRetweet",
          "type": "uint256"
        },
        {
          "internalType": "uint256",
          "name": "scoreLike",
          "type": "uint256"
        }
      ],
      "stateMutability": "view",
      "type": "function"
    },
    {
      "inputs": [],
      "name": "amIParticipating",
      "outputs": [
        {
          "internalType": "bool",
          "name": "",
          "type": "bool"
        }
      ],
      "stateMutability": "view",
      "type": "function"
    },
    {
      "inputs": [],
      "name": "close",
      "outputs": [],
      "stateMutability": "payable",
      "type": "function"
    },
    {
      "inputs": [],
      "name": "getMyScore",
      "outputs": [
        {
          "internalType": "uint256",
          "name": "",
          "type": "uint256"
        }
      ],
      "stateMutability": "view",
      "type": "function"
    },
    {
      "inputs": [
        {
          "internalType": "address",
          "name": "participant",
          "type": "address"
        }
      ],
      "name": "getScore",
      "outputs": [
        {
          "internalType": "uint256",
          "name": "",
          "type": "uint256"
        }
      ],
      "stateMutability": "view",
      "type": "function"
    },
    {
      "inputs": [
        {
          "internalType": "address",
          "name": "participant",
          "type": "address"
        }
      ],
      "name": "isUserParticipating",
      "outputs": [
        {
          "internalType": "bool",
          "name": "",
          "type": "bool"
        }
      ],
      "stateMutability": "view",
      "type": "function"
    },
    {
      "inputs": [],
      "name": "like",
      "outputs": [],
      "stateMutability": "payable",
      "type": "function"
    },
    {
      "inputs": [],
      "name": "owner",
      "outputs": [
        {
          "internalType": "address",
          "name": "",
          "type": "address"
        }
      ],
      "stateMutability": "view",
      "type": "function"
    },
    {
      "inputs": [
        {
          "internalType": "string",
          "name": "id",
          "type": "string"
        }
      ],
      "name": "participate",
      "outputs": [],
      "stateMutability": "payable",
      "type": "function"
    },
    {
      "inputs": [],
      "name": "paused",
      "outputs": [
        {
          "internalType": "bool",
          "name": "",
          "type": "bool"
        }
      ],
      "stateMutability": "view",
      "type": "function"
    },
    {
      "inputs": [],
      "name": "renounceOwnership",
      "outputs": [],
      "stateMutability": "nonpayable",
      "type": "function"
    },
    {
      "inputs": [],
      "name": "retweet",
      "outputs": [],
      "stateMutability": "payable",
      "type": "function"
    },
    {
      "inputs": [
        {
          "internalType": "address",
          "name": "newOwner",
          "type": "address"
        }
      ],
      "name": "transferOwnership",
      "outputs": [],
      "stateMutability": "nonpayable",
      "type": "function"
    }
  ],
  "bytecode": "0x608060405260405162001a8138038062001a81833981810160405260808110156200002957600080fd5b81019080805160405193929190846401000000008211156200004a57600080fd5b838201915060208201858111156200006157600080fd5b82518660018202830111640100000000821117156200007f57600080fd5b8083526020830192505050908051906020019080838360005b83811015620000b557808201518184015260208101905062000098565b50505050905090810190601f168015620000e35780820380516001836020036101000a031916815260200191505b5060405260200180519060200190929190805190602001909291908051906020019092919050505060006200011d6200023b60201b60201c565b9050806000806101000a81548173ffffffffffffffffffffffffffffffffffffffff021916908373ffffffffffffffffffffffffffffffffffffffff1602179055508073ffffffffffffffffffffffffffffffffffffffff16600073ffffffffffffffffffffffffffffffffffffffff167f8be0079c531659141344cd1fd0a4f28419497f9722a3daafe3b4186f6b6457e060405160405180910390a35060008060146101000a81548160ff02191690831515021790555060003411620001e357600080fd5b8260028190555083600190805190602001906200020292919062000243565b506040518060400160405280838152602001828152506003600082015181600001556020820151816001015590505050505050620002f2565b600033905090565b828054600181600116156101000203166002900490600052602060002090601f016020900481019282601f106200028657805160ff1916838001178555620002b7565b82800160010185558215620002b7579182015b82811115620002b657825182559160200191906001019062000299565b5b509050620002c69190620002ca565b5090565b620002ef91905b80821115620002eb576000816000905550600101620002d1565b5090565b90565b61177f80620003026000396000f3fe6080604052600436106101095760003560e01c8063a523b88a11610095578063d5fedc5011610064578063d5fedc5014610488578063f1599f2c14610552578063f2fde38b1461057d578063f578ebaa146105ce578063f60e49b5146105d857610109565b8063a523b88a1461035e578063b5e9757c14610368578063d28d885214610393578063d47875d01461042357610109565b80635c975abb116100dc5780635c975abb14610267578063715018a6146102965780638a258aa8146102ad5780638da5cb5b146102d85780639f89e7551461032f57610109565b80631d27769f1461010e57806327b9d6f7146101c957806327c87c331461023257806343d726d61461025d575b600080fd5b6101c76004803603602081101561012457600080fd5b810190808035906020019064010000000081111561014157600080fd5b82018360208201111561015357600080fd5b8035906020019184600183028401116401000000008311171561017557600080fd5b91908080601f016020809104026020016040519081016040528093929190818152602001838380828437600081840152601f19601f82011690508083019250505050505050919291929050505061060a565b005b3480156101d557600080fd5b50610218600480360360208110156101ec57600080fd5b81019080803573ffffffffffffffffffffffffffffffffffffffff16906020019092919050505061083d565b604051808215151515815260200191505060405180910390f35b34801561023e57600080fd5b50610247610909565b6040518082815260200191505060405180910390f35b61026561090e565b005b34801561027357600080fd5b5061027c610a30565b604051808215151515815260200191505060405180910390f35b3480156102a257600080fd5b506102ab610a46565b005b3480156102b957600080fd5b506102c2610bce565b6040518082815260200191505060405180910390f35b3480156102e457600080fd5b506102ed610bd3565b604051808273ffffffffffffffffffffffffffffffffffffffff1673ffffffffffffffffffffffffffffffffffffffff16815260200191505060405180910390f35b34801561033b57600080fd5b50610344610bfc565b604051808215151515815260200191505060405180910390f35b610366610c0c565b005b34801561037457600080fd5b5061037d610e52565b6040518082815260200191505060405180910390f35b34801561039f57600080fd5b506103a8610e58565b6040518080602001828103825283818151815260200191508051906020019080838360005b838110156103e85780820151818401526020810190506103cd565b50505050905090810190601f1680156104155780820380516001836020036101000a031916815260200191505b509250505060405180910390f35b34801561042f57600080fd5b506104726004803603602081101561044657600080fd5b81019080803573ffffffffffffffffffffffffffffffffffffffff169060200190929190505050610ef6565b6040518082815260200191505060405180910390f35b34801561049457600080fd5b506104d7600480360360208110156104ab57600080fd5b81019080803573ffffffffffffffffffffffffffffffffffffffff169060200190929190505050610fc0565b6040518080602001828103825283818151815260200191508051906020019080838360005b838110156105175780820151818401526020810190506104fc565b50505050905090810190601f1680156105445780820380516001836020036101000a031916815260200191505b509250505060405180910390f35b34801561055e57600080fd5b50610567611076565b6040518082815260200191505060405180910390f35b34801561058957600080fd5b506105cc600480360360208110156105a057600080fd5b81019080803573ffffffffffffffffffffffffffffffffffffffff169060200190929190505050611086565b005b6105d6611293565b005b3480156105e457600080fd5b506105ed6114d9565b604051808381526020018281526020019250505060405180910390f35b60025460058054905010610669576040517f08c379a000000000000000000000000000000000000000000000000000000000815260040180806020018281038252602d81526020018061171d602d913960400191505060405180910390fd5b6040518060200160405280600081525080519060200120600660003373ffffffffffffffffffffffffffffffffffffffff1673ffffffffffffffffffffffffffffffffffffffff168152602001908152602001600020600001604051808280546001816001161561010002031660029004801561071d5780601f106106fb57610100808354040283529182019161071d565b820191906000526020600020905b815481529060010190602001808311610709575b5050915050604051809103902014610780576040517f08c379a000000000000000000000000000000000000000000000000000000000815260040180806020018281038252602d8152602001806116a3602d913960400191505060405180910390fd5b6005339080600181540180825580915050600190039060005260206000200160009091909190916101000a81548173ffffffffffffffffffffffffffffffffffffffff021916908373ffffffffffffffffffffffffffffffffffffffff16021790555080600660003373ffffffffffffffffffffffffffffffffffffffff1673ffffffffffffffffffffffffffffffffffffffff16815260200190815260200160002060000190805190602001906108399291906115fd565b5050565b60006040518060200160405280600081525080519060200120600660008473ffffffffffffffffffffffffffffffffffffffff1673ffffffffffffffffffffffffffffffffffffffff16815260200190815260200160002060000160405180828054600181600116156101000203166002900480156108f35780601f106108d15761010080835404028352918201916108f3565b820191906000526020600020905b8154815290600101906020018083116108df575b5050915050604051809103902014159050919050565b600181565b6040518060200160405280600081525080519060200120600660003373ffffffffffffffffffffffffffffffffffffffff1673ffffffffffffffffffffffffffffffffffffffff16815260200190815260200160002060000160405180828054600181600116156101000203166002900480156109c25780601f106109a05761010080835404028352918201916109c2565b820191906000526020600020905b8154815290600101906020018083116109ae575b505091505060405180910390201415610a26576040517f08c379a00000000000000000000000000000000000000000000000000000000081526004018080602001828103825260278152602001806116f66027913960400191505060405180910390fd5b610a2e6114eb565b565b60008060149054906101000a900460ff16905090565b610a4e6115f5565b73ffffffffffffffffffffffffffffffffffffffff166000809054906101000a900473ffffffffffffffffffffffffffffffffffffffff1673ffffffffffffffffffffffffffffffffffffffff1614610b0f576040517f08c379a00000000000000000000000000000000000000000000000000000000081526004018080602001828103825260208152602001807f4f776e61626c653a2063616c6c6572206973206e6f7420746865206f776e657281525060200191505060405180910390fd5b600073ffffffffffffffffffffffffffffffffffffffff166000809054906101000a900473ffffffffffffffffffffffffffffffffffffffff1673ffffffffffffffffffffffffffffffffffffffff167f8be0079c531659141344cd1fd0a4f28419497f9722a3daafe3b4186f6b6457e060405160405180910390a360008060006101000a81548173ffffffffffffffffffffffffffffffffffffffff021916908373ffffffffffffffffffffffffffffffffffffffff160217905550565b600081565b60008060009054906101000a900473ffffffffffffffffffffffffffffffffffffffff16905090565b6000610c073361083d565b905090565b6040518060200160405280600081525080519060200120600660003373ffffffffffffffffffffffffffffffffffffffff1673ffffffffffffffffffffffffffffffffffffffff1681526020019081526020016000206000016040518082805460018160011615610100020316600290048015610cc05780601f10610c9e576101008083540402835291820191610cc0565b820191906000526020600020905b815481529060010190602001808311610cac575b505091505060405180910390201415610d24576040517f08c379a00000000000000000000000000000000000000000000000000000000081526004018080602001828103825260278152602001806116f66027913960400191505060405180910390fd5b6000600660003373ffffffffffffffffffffffffffffffffffffffff1673ffffffffffffffffffffffffffffffffffffffff168152602001908152602001600020600101600181548110610d7457fe5b906000526020600020015414610df2576040517f08c379a00000000000000000000000000000000000000000000000000000000081526004018080602001828103825260168152602001807f596f752063616e206f6e6c79206c696b65206f6e63650000000000000000000081525060200191505060405180910390fd5b6001600660003373ffffffffffffffffffffffffffffffffffffffff1673ffffffffffffffffffffffffffffffffffffffff168152602001908152602001600020600101600181548110610e4257fe5b9060005260206000200181905550565b60025481565b60018054600181600116156101000203166002900480601f016020809104026020016040519081016040528092919081815260200182805460018160011615610100020316600290048015610eee5780601f10610ec357610100808354040283529160200191610eee565b820191906000526020600020905b815481529060010190602001808311610ed157829003601f168201915b505050505081565b6000600360010154600660008473ffffffffffffffffffffffffffffffffffffffff1673ffffffffffffffffffffffffffffffffffffffff168152602001908152602001600020600101600181548110610f4c57fe5b906000526020600020015402600360000154600660008573ffffffffffffffffffffffffffffffffffffffff1673ffffffffffffffffffffffffffffffffffffffff168152602001908152602001600020600101600081548110610fac57fe5b906000526020600020015402019050919050565b6006602052806000526040600020600091509050806000018054600181600116156101000203166002900480601f01602080910402602001604051908101604052809291908181526020018280546001816001161561010002031660029004801561106c5780601f106110415761010080835404028352916020019161106c565b820191906000526020600020905b81548152906001019060200180831161104f57829003601f168201915b5050505050905081565b600061108133610ef6565b905090565b61108e6115f5565b73ffffffffffffffffffffffffffffffffffffffff166000809054906101000a900473ffffffffffffffffffffffffffffffffffffffff1673ffffffffffffffffffffffffffffffffffffffff161461114f576040517f08c379a00000000000000000000000000000000000000000000000000000000081526004018080602001828103825260208152602001807f4f776e61626c653a2063616c6c6572206973206e6f7420746865206f776e657281525060200191505060405180910390fd5b600073ffffffffffffffffffffffffffffffffffffffff168173ffffffffffffffffffffffffffffffffffffffff1614156111d5576040517f08c379a00000000000000000000000000000000000000000000000000000000081526004018080602001828103825260268152602001806116d06026913960400191505060405180910390fd5b8073ffffffffffffffffffffffffffffffffffffffff166000809054906101000a900473ffffffffffffffffffffffffffffffffffffffff1673ffffffffffffffffffffffffffffffffffffffff167f8be0079c531659141344cd1fd0a4f28419497f9722a3daafe3b4186f6b6457e060405160405180910390a3806000806101000a81548173ffffffffffffffffffffffffffffffffffffffff021916908373ffffffffffffffffffffffffffffffffffffffff16021790555050565b6040518060200160405280600081525080519060200120600660003373ffffffffffffffffffffffffffffffffffffffff1673ffffffffffffffffffffffffffffffffffffffff16815260200190815260200160002060000160405180828054600181600116156101000203166002900480156113475780601f10611325576101008083540402835291820191611347565b820191906000526020600020905b815481529060010190602001808311611333575b5050915050604051809103902014156113ab576040517f08c379a00000000000000000000000000000000000000000000000000000000081526004018080602001828103825260278152602001806116f66027913960400191505060405180910390fd5b6000600660003373ffffffffffffffffffffffffffffffffffffffff1673ffffffffffffffffffffffffffffffffffffffff1681526020019081526020016000206001016000815481106113fb57fe5b906000526020600020015414611479576040517f08c379a00000000000000000000000000000000000000000000000000000000081526004018080602001828103825260198152602001807f596f752063616e206f6e6c792072657477656574206f6e63650000000000000081525060200191505060405180910390fd5b6001600660003373ffffffffffffffffffffffffffffffffffffffff1673ffffffffffffffffffffffffffffffffffffffff1681526020019081526020016000206001016000815481106114c957fe5b9060005260206000200181905550565b60038060000154908060010154905082565b600060149054906101000a900460ff161561156e576040517f08c379a00000000000000000000000000000000000000000000000000000000081526004018080602001828103825260108152602001807f5061757361626c653a207061757365640000000000000000000000000000000081525060200191505060405180910390fd5b6001600060146101000a81548160ff0219169083151502179055507f62e78cea01bee320cd4e420270b5ea74000d11b0c9f74754ebdbfc544b05a2586115b26115f5565b604051808273ffffffffffffffffffffffffffffffffffffffff1673ffffffffffffffffffffffffffffffffffffffff16815260200191505060405180910390a1565b600033905090565b828054600181600116156101000203166002900490600052602060002090601f016020900481019282601f1061163e57805160ff191683800117855561166c565b8280016001018555821561166c579182015b8281111561166b578251825591602001919060010190611650565b5b509050611679919061167d565b5090565b61169f91905b8082111561169b576000816000905550600101611683565b5090565b9056fe596f75206861766520616c72656164792076616c69646174656420796f75722070617274696369706174696f6e4f776e61626c653a206e6577206f776e657220697320746865207a65726f2061646472657373596f75206e65656420746f2076616c696461746520796f75722070617274696369706174696f6e546865206d6178696d756d206e756d626572206f66207061727469636970616e74732069732072656163686564a26469706673582212202acea0e73af09c9caba23fd4d95caacb7856f884defffb4b69ffa7d6a57e380164736f6c63430006050033",
  "compiler": {
    "name": "solc",
    "version": "0.6.5+commit.f956cc89.Emscripten.clang",
    "optimizer": {
      "enabled": false,
      "runs": 200
    },
    "evmVersion": "petersburg"
  }
}